{
  "address": "0x7EACc490BCFC3E13D746B3575c07068Ea0809F49",
  "abi": [
    {
      "inputs": [],
      "stateMutability": "nonpayable",
      "type": "constructor"
    },
    {
      "anonymous": false,
      "inputs": [
        {
          "indexed": true,
          "internalType": "uint256",
          "name": "betId",
          "type": "uint256"
        },
        {
          "indexed": true,
          "internalType": "address",
          "name": "player2",
          "type": "address"
        }
      ],
      "name": "BetAccepted",
      "type": "event"
    },
    {
      "anonymous": false,
      "inputs": [
        {
          "indexed": true,
          "internalType": "uint256",
          "name": "betId",
          "type": "uint256"
        },
        {
          "indexed": true,
          "internalType": "address",
          "name": "player1",
          "type": "address"
        },
        {
          "indexed": true,
          "internalType": "uint256",
          "name": "targetTimestamp",
          "type": "uint256"
        },
        {
          "indexed": false,
          "internalType": "uint256",
          "name": "amount",
          "type": "uint256"
        },
        {
          "indexed": false,
          "internalType": "uint256",
          "name": "targetPrice",
          "type": "uint256"
        },
        {
          "indexed": false,
          "internalType": "bool",
          "name": "isHigherChosen",
          "type": "bool"
        }
      ],
      "name": "BetCreated",
      "type": "event"
    },
    {
      "anonymous": false,
      "inputs": [
        {
          "indexed": true,
          "internalType": "uint256",
          "name": "betId",
          "type": "uint256"
        }
      ],
      "name": "BetDeleted",
      "type": "event"
    },
    {
      "anonymous": false,
      "inputs": [
        {
          "indexed": true,
          "internalType": "uint256",
          "name": "betId",
          "type": "uint256"
        },
        {
          "indexed": true,
          "internalType": "address",
          "name": "winner",
          "type": "address"
        },
        {
          "indexed": true,
          "internalType": "address",
          "name": "loser",
          "type": "address"
        },
        {
          "indexed": false,
          "internalType": "uint256",
          "name": "amount",
          "type": "uint256"
        }
      ],
      "name": "BetFinished",
      "type": "event"
    },
    {
      "anonymous": false,
      "inputs": [
        {
          "indexed": true,
          "internalType": "address",
          "name": "previousOwner",
          "type": "address"
        },
        {
          "indexed": true,
          "internalType": "address",
          "name": "newOwner",
          "type": "address"
        }
      ],
      "name": "OwnershipTransferred",
      "type": "event"
    },
    {
      "inputs": [
        {
          "internalType": "uint256",
          "name": "_betId",
          "type": "uint256"
        },
        {
          "internalType": "uint256",
          "name": "_priceAtBetFinished",
          "type": "uint256"
        }
      ],
      "name": "_finishBet",
      "outputs": [],
      "stateMutability": "nonpayable",
      "type": "function"
    },
    {
      "inputs": [
        {
          "internalType": "uint256",
          "name": "_betId",
          "type": "uint256"
        }
      ],
      "name": "acceptBet",
      "outputs": [],
      "stateMutability": "payable",
      "type": "function"
    },
    {
      "inputs": [],
      "name": "betIdCounter",
      "outputs": [
        {
          "internalType": "uint256",
          "name": "",
          "type": "uint256"
        }
      ],
      "stateMutability": "view",
      "type": "function"
    },
    {
      "inputs": [
        {
          "internalType": "uint256",
          "name": "",
          "type": "uint256"
        }
      ],
      "name": "bets",
      "outputs": [
        {
          "internalType": "address",
          "name": "player1",
          "type": "address"
        },
        {
          "internalType": "address",
          "name": "player2",
          "type": "address"
        },
        {
          "internalType": "enum DuelContract.BetState",
          "name": "state",
          "type": "uint8"
        },
        {
          "internalType": "uint256",
          "name": "targetPrice",
          "type": "uint256"
        },
        {
          "internalType": "bool",
          "name": "isHigherChosen",
          "type": "bool"
        },
        {
          "internalType": "uint256",
          "name": "targetTimestamp",
          "type": "uint256"
        },
        {
          "internalType": "uint256",
          "name": "amount",
          "type": "uint256"
        }
      ],
      "stateMutability": "view",
      "type": "function"
    },
    {
      "inputs": [
        {
          "internalType": "uint256",
          "name": "_targetPrice",
          "type": "uint256"
        },
        {
          "internalType": "bool",
          "name": "_isHigherChosen",
          "type": "bool"
        },
        {
          "internalType": "uint256",
          "name": "_targetTimestamp",
          "type": "uint256"
        }
      ],
      "name": "createBet",
      "outputs": [],
      "stateMutability": "payable",
      "type": "function"
    },
    {
      "inputs": [
        {
          "internalType": "uint256",
          "name": "_betId",
          "type": "uint256"
        }
      ],
      "name": "deleteBet",
      "outputs": [],
      "stateMutability": "nonpayable",
      "type": "function"
    },
    {
      "inputs": [
        {
          "internalType": "uint256",
          "name": "_betId",
          "type": "uint256"
        }
      ],
      "name": "finishBet",
      "outputs": [],
      "stateMutability": "nonpayable",
      "type": "function"
    },
    {
      "inputs": [],
      "name": "getChainlinkDataFeedLatestAnswer",
      "outputs": [
        {
          "internalType": "int256",
          "name": "",
          "type": "int256"
        }
      ],
      "stateMutability": "view",
      "type": "function"
    },
    {
      "inputs": [],
      "name": "owner",
      "outputs": [
        {
          "internalType": "address",
          "name": "",
          "type": "address"
        }
      ],
      "stateMutability": "view",
      "type": "function"
    },
    {
      "inputs": [],
      "name": "renounceOwnership",
      "outputs": [],
      "stateMutability": "nonpayable",
      "type": "function"
    },
    {
      "inputs": [],
      "name": "timeoutValueForOneMinute",
      "outputs": [
        {
          "internalType": "uint256",
          "name": "",
          "type": "uint256"
        }
      ],
      "stateMutability": "view",
      "type": "function"
    },
    {
      "inputs": [
        {
          "internalType": "address",
          "name": "newOwner",
          "type": "address"
        }
      ],
      "name": "transferOwnership",
      "outputs": [],
      "stateMutability": "nonpayable",
      "type": "function"
    },
    {
      "inputs": [],
      "name": "withdraw",
      "outputs": [],
      "stateMutability": "nonpayable",
      "type": "function"
    },
    {
      "stateMutability": "payable",
      "type": "receive"
    }
  ],
  "transactionHash": "0x115aa48043b4a2bcf6ad1d1c9bc2e169ef94c568a11b0b7178db7bd6e5dd3401",
  "args": [],
  "numDeployments": 1,
  "solcInputHash": "f7107a833961debfb8fe6167d8374d5e",
  "bytecode": "0x60a06040526000600255603c60805234801561001a57600080fd5b506100243361004f565b600180546001600160a01b0319167359f1ec1f10bd7ed9b938431086bc1d9e233ecf4117905561009f565b600080546001600160a01b038381166001600160a01b0319831681178455604051919092169283917f8be0079c531659141344cd1fd0a4f28419497f9722a3daafe3b4186f6b6457e09190a35050565b60805161117e6100c1600039600081816102380152610850015261117e6000f3fe6080604052600436106100c65760003560e01c8063715018a61161007f578063bb642bb811610059578063bb642bb81461025a578063bea4dfb51461027a578063c72e2fa41461028f578063f2fde38b146102a257600080fd5b8063715018a6146101e95780638da5cb5b146101fe578063ac56552a1461022657600080fd5b80630614be14146100d257806322af00fa146100f4578063232e30e31461017d5780632926696b146101a15780633ccfd60b146101c15780636c0c27e1146101d657600080fd5b366100cd57005b600080fd5b3480156100de57600080fd5b506100f26100ed366004610f3b565b6102c2565b005b34801561010057600080fd5b5061016161010f366004610f5d565b60036020819052600091825260409091208054600182015460028301549383015460048401546005909401546001600160a01b039384169593831694600160a01b90930460ff90811694939216919087565b6040516101749796959493929190610f8c565b60405180910390f35b34801561018957600080fd5b5061019360025481565b604051908152602001610174565b3480156101ad57600080fd5b506100f26101bc366004610f5d565b61056e565b3480156101cd57600080fd5b506100f2610588565b6100f26101e4366004610f5d565b610675565b3480156101f557600080fd5b506100f261095c565b34801561020a57600080fd5b506000546040516001600160a01b039091168152602001610174565b34801561023257600080fd5b506101937f000000000000000000000000000000000000000000000000000000000000000081565b34801561026657600080fd5b506100f2610275366004610f5d565b610970565b34801561028657600080fd5b50610193610b6e565b6100f261029d366004610feb565b610bf3565b3480156102ae57600080fd5b506100f26102bd366004611028565b610e18565b6000828152600360205260409020600180820154600160a01b900460ff1660038111156102f1576102f1610f76565b146103435760405162461bcd60e51b815260206004820152601c60248201527f426574206973206e6f7420696e2041434345505445442073746174650000000060448201526064015b60405180910390fd5b428160040154106103965760405162461bcd60e51b815260206004820152601860248201527f426574206973206e6f7420636f6d706c65746564207965740000000000000000604482015260640161033a565b8060020154821180156103b25750600381015460ff1615156001145b806103d057508060020154821080156103d05750600381015460ff16155b156104a6576000838152600360205260409020600101805460ff60a01b1916600160a11b179055805460058201546001600160a01b03909116906108fc90600a9061041c90601361106e565b610426919061108b565b6040518115909202916000818181858888f1935050505015801561044e573d6000803e3d6000fd5b506001810154815460058301546040519081526001600160a01b03928316929091169085907f5c07314e1f88fb33b34d3771ca8b627afc1932a0fcdba120e82846dfa4c24400906020015b60405180910390a4505050565b6000838152600360205260409020600101805460ff60a01b1916600360a01b179055805460058201546001600160a01b03909116906108fc90600a906104ed90601361106e565b6104f7919061108b565b6040518115909202916000818181858888f1935050505015801561051f573d6000803e3d6000fd5b508054600182015460058301546040519081526001600160a01b03928316929091169085907f5c07314e1f88fb33b34d3771ca8b627afc1932a0fcdba120e82846dfa4c2440090602001610499565b6000610578610b6e565b905061058482826102c2565b5050565b6000546001600160a01b031633146105e25760405162461bcd60e51b815260206004820152601b60248201527f536f7272792c20796f75277265206e6f742074686520626f7373210000000000604482015260640161033a565b478061063c5760405162461bcd60e51b815260206004820152602360248201527f436f6e747261637420686173206e6f2062616c616e636520746f20776974686460448201526272617760e81b606482015260840161033a565b600080546040516001600160a01b039091169183156108fc02918491818181858888f19350505050158015610584573d6000803e3d6000fd5b6000818152600360208181526040808420815160e08101835281546001600160a01b03908116825260018301549081169482019490945293909291840191600160a01b900460ff16908111156106cd576106cd610f76565b60038111156106de576106de610f76565b815260028201546020820152600382015460ff1615156040820152600482015460608201526005909101546080909101528051909150336001600160a01b039091160361076d5760405162461bcd60e51b815260206004820152601c60248201527f596f752063616e2774206368616c6c656e676520796f757273656c6600000000604482015260640161033a565b60008160400151600381111561078557610785610f76565b146107dd5760405162461bcd60e51b815260206004820152602260248201527f426574206d7573742062652057414954494e4720746f20626520616363657074604482015261195960f21b606482015260840161033a565b348160c00151111561084b5760405162461bcd60e51b815260206004820152603160248201527f596f7520686176656e27742073656e7420726571756972656420616d6f756e74604482015270081bd988115512081d1bc81858d8d95c1d607a1b606482015260840161033a565b6108757f0000000000000000000000000000000000000000000000000000000000000000426110ad565b8160a00151116108ed5760405162461bcd60e51b815260206004820152603c60248201527f426574732063616e206c6173746c792062652061636365707465642031206d6960448201527f6e757465206265666f726520746865206265742066696e697368657300000000606482015260840161033a565b60008281526003602090815260408083206001018054600160a01b6001600160a81b031990911660ff60a01b193316171790559083015190516001600160a01b039091169184917fb727a22534e43d337addefe6245e691859b29f7bf356bc7e6d77ff92070fe1249190a35050565b610964610e91565b61096e6000610eeb565b565b6000818152600360208181526040808420815160e08101835281546001600160a01b03908116825260018301549081169482019490945293909291840191600160a01b900460ff16908111156109c8576109c8610f76565b60038111156109d9576109d9610f76565b815260028201546020820152600382015460ff16151560408201526004820154606082015260059091015460809091015280519091506001600160a01b03163314610a7d5760405162461bcd60e51b815260206004820152602e60248201527f596f75206d75737420626520706c61796572203120746f2064656c657465207460448201526d1a194818995d081c995c5d595cdd60921b606482015260840161033a565b600081604001516003811115610a9557610a95610f76565b14610aec5760405162461bcd60e51b815260206004820152602160248201527f426574206d7573742062652057414954494e4720746f2062652064656c6574656044820152601960fa1b606482015260840161033a565b600082815260036020526040808220600101805460ff60a01b1916600160a11b17905560c08301519051339282156108fc02929190818181858888f19350505050158015610b3e573d6000803e3d6000fd5b5060405182907f17272466b3901abd85bd358a42222b12af058231f7f4eedfc337c90e5f98fcfe90600090a25050565b600080600160009054906101000a90046001600160a01b03166001600160a01b031663feaf968c6040518163ffffffff1660e01b815260040160a060405180830381865afa158015610bc4573d6000803e3d6000fd5b505050506040513d601f19601f82011682018060405250810190610be891906110df565b509195945050505050565b60008311610c5b5760405162461bcd60e51b815260206004820152602f60248201527f596f752063616e6e6f742063726561746520626574207769746820746172676560448201526e074207072696365206265696e67203608c1b606482015260840161033a565b428111610cd05760405162461bcd60e51b815260206004820152603b60248201527f4c61737420626c6f636b206e756d62657220697320736d616c6c65722074686160448201527f6e207468652063757272656e7420626c6f636b206e756d626572210000000000606482015260840161033a565b60028054906000610ce08361112f565b90915550506040805160e0810182523381526000602080830182815283850183815260608501899052871515608086015260a085018790523460c0860152600254845260039283905294909220835181546001600160a01b039182166001600160a01b0319918216178355935160018301805491909216948116851782559551949591949390926001600160a81b03199092161790600160a01b908490811115610d8c57610d8c610f76565b0217905550606082810151600283810191909155608084015160038401805460ff191691151591909117905560a0840151600484015560c090930151600590920191909155905460408051348152602081018790528515159181019190915283923392917f40ee57d69998528e161d8b655bcdeb476f375599fefdeb56b946eb6b6e91b86c9101610499565b610e20610e91565b6001600160a01b038116610e855760405162461bcd60e51b815260206004820152602660248201527f4f776e61626c653a206e6577206f776e657220697320746865207a65726f206160448201526564647265737360d01b606482015260840161033a565b610e8e81610eeb565b50565b6000546001600160a01b0316331461096e5760405162461bcd60e51b815260206004820181905260248201527f4f776e61626c653a2063616c6c6572206973206e6f7420746865206f776e6572604482015260640161033a565b600080546001600160a01b038381166001600160a01b0319831681178455604051919092169283917f8be0079c531659141344cd1fd0a4f28419497f9722a3daafe3b4186f6b6457e09190a35050565b60008060408385031215610f4e57600080fd5b50508035926020909101359150565b600060208284031215610f6f57600080fd5b5035919050565b634e487b7160e01b600052602160045260246000fd5b6001600160a01b0388811682528716602082015260e0810160048710610fc257634e487b7160e01b600052602160045260246000fd5b60408201969096526060810194909452911515608084015260a083015260c09091015292915050565b60008060006060848603121561100057600080fd5b833592506020840135801515811461101757600080fd5b929592945050506040919091013590565b60006020828403121561103a57600080fd5b81356001600160a01b038116811461105157600080fd5b9392505050565b634e487b7160e01b600052601160045260246000fd5b808202811582820484141761108557611085611058565b92915050565b6000826110a857634e487b7160e01b600052601260045260246000fd5b500490565b8082018082111561108557611085611058565b805169ffffffffffffffffffff811681146110da57600080fd5b919050565b600080600080600060a086880312156110f757600080fd5b611100866110c0565b9450602086015193506040860151925060608601519150611123608087016110c0565b90509295509295909350565b60006001820161114157611141611058565b506001019056fea2646970667358221220bfbdb5609d2db4c813d5532a502df57a350bc5ddcc84618afb94bea60553709b64736f6c63430008110033",
  "devdoc": {
    "author": "0xBabacan",
    "details": "Currently it will be used for challenging other accounts to bet on ETH price Sports, finance and other topic can be implemented for betting in future     ",
    "kind": "dev",
    "methods": {
      "owner()": {
        "details": "Returns the address of the current owner."
      },
      "renounceOwnership()": {
        "details": "Leaves the contract without owner. It will not be possible to call `onlyOwner` functions. Can only be called by the current owner. NOTE: Renouncing ownership will leave the contract without an owner, thereby disabling any functionality that is only available to the owner."
      },
      "transferOwnership(address)": {
        "details": "Transfers ownership of the contract to a new account (`newOwner`). Can only be called by the current owner."
      }
    },
    "title": "Duel",
    "version": 1
  },
  "userdoc": {
    "kind": "user",
    "methods": {
      "constructor": {
        "notice": "Network: Sepolia Testnet Aggregator: ETH/USD Address: 0x59F1ec1f10bD7eD9B938431086bC1D9e233ECf41"
      }
    },
    "notice": "A betting duello game contract.",
    "version": 1
  },
  "storageLayout": {
    "storage": [
      {
        "astId": 53,
        "contract": "contracts/DuelContract.sol:DuelContract",
        "label": "_owner",
        "offset": 0,
        "slot": "0",
        "type": "t_address"
      },
      {
        "astId": 192,
        "contract": "contracts/DuelContract.sol:DuelContract",
        "label": "priceFeed",
        "offset": 0,
        "slot": "1",
        "type": "t_contract(AggregatorV3Interface)45"
      },
      {
        "astId": 195,
        "contract": "contracts/DuelContract.sol:DuelContract",
        "label": "betIdCounter",
        "offset": 0,
        "slot": "2",
        "type": "t_uint256"
      },
      {
        "astId": 224,
        "contract": "contracts/DuelContract.sol:DuelContract",
        "label": "bets",
        "offset": 0,
        "slot": "3",
        "type": "t_mapping(t_uint256,t_struct(Bet)219_storage)"
      }
    ],
    "types": {
      "t_address": {
        "encoding": "inplace",
        "label": "address",
        "numberOfBytes": "20"
      },
      "t_bool": {
        "encoding": "inplace",
        "label": "bool",
        "numberOfBytes": "1"
      },
      "t_contract(AggregatorV3Interface)45": {
        "encoding": "inplace",
        "label": "contract AggregatorV3Interface",
        "numberOfBytes": "20"
      },
      "t_enum(BetState)203": {
        "encoding": "inplace",
        "label": "enum DuelContract.BetState",
        "numberOfBytes": "1"
      },
      "t_mapping(t_uint256,t_struct(Bet)219_storage)": {
        "encoding": "mapping",
        "key": "t_uint256",
        "label": "mapping(uint256 => struct DuelContract.Bet)",
        "numberOfBytes": "32",
        "value": "t_struct(Bet)219_storage"
      },
      "t_struct(Bet)219_storage": {
        "encoding": "inplace",
        "label": "struct DuelContract.Bet",
        "members": [
          {
            "astId": 205,
            "contract": "contracts/DuelContract.sol:DuelContract",
            "label": "player1",
            "offset": 0,
            "slot": "0",
            "type": "t_address"
          },
          {
            "astId": 207,
            "contract": "contracts/DuelContract.sol:DuelContract",
            "label": "player2",
            "offset": 0,
            "slot": "1",
            "type": "t_address"
          },
          {
            "astId": 210,
            "contract": "contracts/DuelContract.sol:DuelContract",
            "label": "state",
            "offset": 20,
            "slot": "1",
            "type": "t_enum(BetState)203"
          },
          {
            "astId": 212,
            "contract": "contracts/DuelContract.sol:DuelContract",
            "label": "targetPrice",
            "offset": 0,
            "slot": "2",
            "type": "t_uint256"
          },
          {
            "astId": 214,
            "contract": "contracts/DuelContract.sol:DuelContract",
            "label": "isHigherChosen",
            "offset": 0,
            "slot": "3",
            "type": "t_bool"
          },
          {
            "astId": 216,
            "contract": "contracts/DuelContract.sol:DuelContract",
            "label": "targetTimestamp",
            "offset": 0,
            "slot": "4",
            "type": "t_uint256"
          },
          {
            "astId": 218,
            "contract": "contracts/DuelContract.sol:DuelContract",
            "label": "amount",
            "offset": 0,
            "slot": "5",
            "type": "t_uint256"
          }
        ],
        "numberOfBytes": "192"
      },
      "t_uint256": {
        "encoding": "inplace",
        "label": "uint256",
        "numberOfBytes": "32"
      }
    }
  }
}